{
  "_format": "hh-sol-artifact-1",
  "contractName": "PrivatePropertyTrading",
  "sourceName": "contracts/PrivatePropertyTrading.sol",
  "abi": [
    {
      "anonymous": false,
      "inputs": [
        {
          "indexed": true,
          "internalType": "uint256",
          "name": "propertyId",
          "type": "uint256"
        },
        {
          "indexed": false,
          "internalType": "uint256",
          "name": "oldPrice",
          "type": "uint256"
        },
        {
          "indexed": false,
          "internalType": "uint256",
          "name": "newPrice",
          "type": "uint256"
        }
      ],
      "name": "PriceUpdated",
      "type": "event"
    },
    {
      "anonymous": false,
      "inputs": [
        {
          "indexed": true,
          "internalType": "uint256",
          "name": "propertyId",
          "type": "uint256"
        }
      ],
      "name": "PropertyDelisted",
      "type": "event"
    },
    {
      "anonymous": false,
      "inputs": [
        {
          "indexed": true,
          "internalType": "uint256",
          "name": "propertyId",
          "type": "uint256"
        },
        {
          "indexed": false,
          "internalType": "uint256",
          "name": "price",
          "type": "uint256"
        }
      ],
      "name": "PropertyListed",
      "type": "event"
    },
    {
      "anonymous": false,
      "inputs": [
        {
          "indexed": true,
          "internalType": "uint256",
          "name": "propertyId",
          "type": "uint256"
        },
        {
          "indexed": true,
          "internalType": "address",
          "name": "buyer",
          "type": "address"
        },
        {
          "indexed": true,
          "internalType": "address",
          "name": "seller",
          "type": "address"
        },
        {
          "indexed": false,
          "internalType": "uint256",
          "name": "price",
          "type": "uint256"
        }
      ],
      "name": "PropertyPurchased",
      "type": "event"
    },
    {
      "anonymous": false,
      "inputs": [
        {
          "indexed": true,
          "internalType": "uint256",
          "name": "propertyId",
          "type": "uint256"
        },
        {
          "indexed": true,
          "internalType": "address",
          "name": "owner",
          "type": "address"
        },
        {
          "indexed": false,
          "internalType": "uint256",
          "name": "price",
          "type": "uint256"
        }
      ],
      "name": "PropertyRegistered",
      "type": "event"
    },
    {
      "inputs": [
        {
          "internalType": "uint256",
          "name": "_propertyId",
          "type": "uint256"
        }
      ],
      "name": "delistProperty",
      "outputs": [],
      "stateMutability": "nonpayable",
      "type": "function"
    },
    {
      "inputs": [],
      "name": "getListedProperties",
      "outputs": [
        {
          "internalType": "uint256[]",
          "name": "",
          "type": "uint256[]"
        }
      ],
      "stateMutability": "view",
      "type": "function"
    },
    {
      "inputs": [
        {
          "internalType": "address",
          "name": "_owner",
          "type": "address"
        }
      ],
      "name": "getPropertiesByOwner",
      "outputs": [
        {
          "internalType": "uint256[]",
          "name": "",
          "type": "uint256[]"
        }
      ],
      "stateMutability": "view",
      "type": "function"
    },
    {
      "inputs": [
        {
          "internalType": "uint256",
          "name": "_propertyId",
          "type": "uint256"
        }
      ],
      "name": "getProperty",
      "outputs": [
        {
          "internalType": "uint256",
          "name": "id",
          "type": "uint256"
        },
        {
          "internalType": "address",
          "name": "owner",
          "type": "address"
        },
        {
          "internalType": "string",
          "name": "propertyHash",
          "type": "string"
        },
        {
          "internalType": "uint256",
          "name": "price",
          "type": "uint256"
        },
        {
          "internalType": "bool",
          "name": "isListed",
          "type": "bool"
        },
        {
          "internalType": "uint256",
          "name": "listedAt",
          "type": "uint256"
        }
      ],
      "stateMutability": "view",
      "type": "function"
    },
    {
      "inputs": [],
      "name": "getTotalProperties",
      "outputs": [
        {
          "internalType": "uint256",
          "name": "",
          "type": "uint256"
        }
      ],
      "stateMutability": "view",
      "type": "function"
    },
    {
      "inputs": [],
      "name": "getTotalTransactions",
      "outputs": [
        {
          "internalType": "uint256",
          "name": "",
          "type": "uint256"
        }
      ],
      "stateMutability": "view",
      "type": "function"
    },
    {
      "inputs": [
        {
          "internalType": "uint256",
          "name": "_transactionId",
          "type": "uint256"
        }
      ],
      "name": "getTransaction",
      "outputs": [
        {
          "internalType": "uint256",
          "name": "propertyId",
          "type": "uint256"
        },
        {
          "internalType": "address",
          "name": "seller",
          "type": "address"
        },
        {
          "internalType": "address",
          "name": "buyer",
          "type": "address"
        },
        {
          "internalType": "uint256",
          "name": "price",
          "type": "uint256"
        },
        {
          "internalType": "uint256",
          "name": "timestamp",
          "type": "uint256"
        },
        {
          "internalType": "bool",
          "name": "completed",
          "type": "bool"
        }
      ],
      "stateMutability": "view",
      "type": "function"
    },
    {
      "inputs": [
        {
          "internalType": "address",
          "name": "_user",
          "type": "address"
        }
      ],
      "name": "getTransactionsByUser",
      "outputs": [
        {
          "internalType": "uint256[]",
          "name": "",
          "type": "uint256[]"
        }
      ],
      "stateMutability": "view",
      "type": "function"
    },
    {
      "inputs": [
        {
          "internalType": "uint256",
          "name": "_propertyId",
          "type": "uint256"
        }
      ],
      "name": "listProperty",
      "outputs": [],
      "stateMutability": "nonpayable",
      "type": "function"
    },
    {
      "inputs": [
        {
          "internalType": "uint256",
          "name": "",
          "type": "uint256"
        }
      ],
      "name": "properties",
      "outputs": [
        {
          "internalType": "uint256",
          "name": "id",
          "type": "uint256"
        },
        {
          "internalType": "address",
          "name": "owner",
          "type": "address"
        },
        {
          "internalType": "string",
          "name": "propertyHash",
          "type": "string"
        },
        {
          "internalType": "uint256",
          "name": "price",
          "type": "uint256"
        },
        {
          "internalType": "bool",
          "name": "isListed",
          "type": "bool"
        },
        {
          "internalType": "uint256",
          "name": "listedAt",
          "type": "uint256"
        }
      ],
      "stateMutability": "view",
      "type": "function"
    },
    {
      "inputs": [
        {
          "internalType": "uint256",
          "name": "_propertyId",
          "type": "uint256"
        }
      ],
      "name": "purchaseProperty",
      "outputs": [],
      "stateMutability": "payable",
      "type": "function"
    },
    {
      "inputs": [
        {
          "internalType": "string",
          "name": "_propertyHash",
          "type": "string"
        },
        {
          "internalType": "uint256",
          "name": "_price",
          "type": "uint256"
        }
      ],
      "name": "registerProperty",
      "outputs": [
        {
          "internalType": "uint256",
          "name": "",
          "type": "uint256"
        }
      ],
      "stateMutability": "nonpayable",
      "type": "function"
    },
    {
      "inputs": [
        {
          "internalType": "uint256",
          "name": "",
          "type": "uint256"
        }
      ],
      "name": "transactions",
      "outputs": [
        {
          "internalType": "uint256",
          "name": "propertyId",
          "type": "uint256"
        },
        {
          "internalType": "address",
          "name": "seller",
          "type": "address"
        },
        {
          "internalType": "address",
          "name": "buyer",
          "type": "address"
        },
        {
          "internalType": "uint256",
          "name": "price",
          "type": "uint256"
        },
        {
          "internalType": "uint256",
          "name": "timestamp",
          "type": "uint256"
        },
        {
          "internalType": "bool",
          "name": "completed",
          "type": "bool"
        }
      ],
      "stateMutability": "view",
      "type": "function"
    },
    {
      "inputs": [
        {
          "internalType": "uint256",
          "name": "_propertyId",
          "type": "uint256"
        },
        {
          "internalType": "uint256",
          "name": "_newPrice",
          "type": "uint256"
        }
      ],
      "name": "updatePrice",
      "outputs": [],
      "stateMutability": "nonpayable",
      "type": "function"
    },
    {
      "inputs": [
        {
          "internalType": "address",
          "name": "",
          "type": "address"
        },
        {
          "internalType": "uint256",
          "name": "",
          "type": "uint256"
        }
      ],
      "name": "userProperties",
      "outputs": [
        {
          "internalType": "uint256",
          "name": "",
          "type": "uint256"
        }
      ],
      "stateMutability": "view",
      "type": "function"
    },
    {
      "inputs": [
        {
          "internalType": "address",
          "name": "",
          "type": "address"
        },
        {
          "internalType": "uint256",
          "name": "",
          "type": "uint256"
        }
      ],
      "name": "userTransactions",
      "outputs": [
        {
          "internalType": "uint256",
          "name": "",
          "type": "uint256"
        }
      ],
      "stateMutability": "view",
      "type": "function"
    }
  ],
  "bytecode": "0x608060405234801561000f575f80fd5b506115e18061001d5f395ff3fe6080604052600436106100ef575f3560e01c806382367b2d11610087578063b6aee1cf11610057578063b6aee1cf146102e8578063b842ec4414610307578063e2271c9f14610326578063f7b1080814610345575f80fd5b806382367b2d146102375780639ace38c2146102565780639fcb2748146102b5578063b5c604ff146102d4575f80fd5b806332665ffb116100c257806332665ffb1461017a57806333ea3dc8146101ab57806379d9c439146102055780637c53971814610218575f80fd5b8063047ac364146100f35780630fb6d6d11461012857806317aaf5ed1461013c5780631cc2ea7a14610159575b5f80fd5b3480156100fe575f80fd5b5061011261010d3660046111ac565b610364565b60405161011f91906111cc565b60405180910390f35b348015610133575f80fd5b506101126103cd565b348015610147575f80fd5b505f545b60405190815260200161011f565b348015610164575f80fd5b5061017861017336600461120f565b6104c7565b005b348015610185575f80fd5b5061019961019436600461120f565b6105d8565b60405161011f96959493929190611226565b3480156101b6575f80fd5b506101ca6101c536600461120f565b61072f565b604080519687526001600160a01b039586166020880152939094169285019290925260608401526080830152151560a082015260c00161011f565b61017861021336600461120f565b61080b565b348015610223575f80fd5b5061014b6102323660046112ba565b610c1a565b348015610242575f80fd5b50610178610251366004611369565b610ddc565b348015610261575f80fd5b506101ca61027036600461120f565b600360208190525f918252604090912080546001820154600283015493830154600484015460059094015492946001600160a01b039283169492169290919060ff1686565b3480156102c0575f80fd5b506101126102cf3660046111ac565b610eec565b3480156102df575f80fd5b5060015461014b565b3480156102f3575f80fd5b5061017861030236600461120f565b610f53565b348015610312575f80fd5b5061014b610321366004611389565b611082565b348015610331575f80fd5b5061014b610340366004611389565b6110ad565b348015610350575f80fd5b5061019961035f36600461120f565b6110c6565b6001600160a01b0381165f908152600560209081526040918290208054835181840281018401909452808452606093928301828280156103c157602002820191905f5260205f20905b8154815260200190600101908083116103ad575b50505050509050919050565b60605f60015b5f548111610414575f8181526002602052604090206004015460ff161561040257816103fe816113c5565b9250505b8061040c816113c5565b9150506103d3565b505f8167ffffffffffffffff81111561042f5761042f6112a6565b604051908082528060200260200182016040528015610458578160200160208202803683370190505b5090505f60015b5f5481116104be575f8181526002602052604090206004015460ff16156104ac5780838381518110610493576104936113dd565b6020908102919091010152816104a8816113c5565b9250505b806104b6816113c5565b91505061045f565b50909392505050565b805f811180156104d857505f548111155b6104fd5760405162461bcd60e51b81526004016104f4906113f1565b60405180910390fd5b5f8281526002602052604090206001015482906001600160a01b031633146105375760405162461bcd60e51b81526004016104f490611428565b5f8381526002602052604090206004015460ff1661058d5760405162461bcd60e51b8152602060048201526013602482015272141c9bdc195c9d1e481b9bdd081b1a5cdd1959606a1b60448201526064016104f4565b5f8381526002602052604080822060048101805460ff191690556005018290555184917f96abd22e7d47a60e2f7c6de9d91b2dacc141b1f21ce398bbd843e08c8ce6a02d91a2505050565b5f8060605f805f865f811180156105f057505f548111155b61060c5760405162461bcd60e51b81526004016104f4906113f1565b5f888152600260208181526040808420815160c0810183528154815260018201546001600160a01b03169381019390935292830180549293929184019161065290611454565b80601f016020809104026020016040519081016040528092919081815260200182805461067e90611454565b80156106c95780601f106106a0576101008083540402835291602001916106c9565b820191905f5260205f20905b8154815290600101906020018083116106ac57829003601f168201915b50505091835250506003820154602080830191909152600483015460ff1615156040808401919091526005909301546060928301528351908401519284015191840151608085015160a090950151919e939d50919b509099509197509095509350505050565b5f805f805f805f8711801561074657506001548711155b6107925760405162461bcd60e51b815260206004820152601a60248201527f5472616e73616374696f6e20646f6573206e6f7420657869737400000000000060448201526064016104f4565b5050505f938452505060036020818152604093849020845160c081018652815480825260018301546001600160a01b03908116948301859052600284015416968201879052938201546060820181905260048301546080830181905260059093015460ff16151560a09092018290529396929594509091565b805f8111801561081c57505f548111155b6108385760405162461bcd60e51b81526004016104f4906113f1565b5f82815260026020526040902060040154829060ff166108905760405162461bcd60e51b8152602060048201526013602482015272141c9bdc195c9d1e481b9bdd081b1a5cdd1959606a1b60448201526064016104f4565b5f83815260026020526040902060018101546001600160a01b031633036108f95760405162461bcd60e51b815260206004820152601c60248201527f43616e6e6f742062757920796f7572206f776e2070726f70657274790000000060448201526064016104f4565b80600301543410156109445760405162461bcd60e51b8152602060048201526014602482015273125b9cdd59999a58da595b9d081c185e5b595b9d60621b60448201526064016104f4565b60018181018054336001600160a01b0319821681179092556004808501805460ff191690555f60058601819055928352602090815260408320805480860182559084529083200187905582546001600160a01b039091169290916109a7836113c5565b90915550506040805160c0810182528681526001600160a01b0383811660208084018281523385870181815260038a8101805460608a019081524260808b01908152600160a08c0181815281545f908152868b528e81209d518e5598518d83018054918e166001600160a01b0319928316179055965160028e01805491909d16971696909617909a559051928a01929092559051600489015590516005978801805491151560ff199092169190911790559082529482528581208454815480870183559183528383209091015582815285812084548154958601825590825291812090930155915492519092908381818185875af1925050503d805f8114610aca576040519150601f19603f3d011682016040523d82523d5f602084013e610acf565b606091505b5050905080610b205760405162461bcd60e51b815260206004820152601760248201527f5061796d656e74207472616e73666572206661696c656400000000000000000060448201526064016104f4565b8260030154341115610bc05760038301545f903390610b3f903461148c565b6040515f81818185875af1925050503d805f8114610b78576040519150601f19603f3d011682016040523d82523d5f602084013e610b7d565b606091505b5050905080610bbe5760405162461bcd60e51b815260206004820152600d60248201526c1499599d5b990819985a5b1959609a1b60448201526064016104f4565b505b816001600160a01b0316336001600160a01b0316877fd78c5d7b2c2d6aec7166c055cf40ad27884c2612c3073c68c2e7ed76ccd979f88660030154604051610c0a91815260200190565b60405180910390a4505050505050565b5f80835111610c6b5760405162461bcd60e51b815260206004820152601d60248201527f50726f706572747920686173682063616e6e6f7420626520656d70747900000060448201526064016104f4565b5f8211610cba5760405162461bcd60e51b815260206004820152601c60248201527f5072696365206d7573742062652067726561746572207468616e20300000000060448201526064016104f4565b5f80549080610cc8836113c5565b90915550506040805160c0810182525f8054808352336020808501918252848601898152606086018990526080860185905260a08601859052928452600290819052949092208351815591516001830180546001600160a01b0319166001600160a01b03909216919091179055519192909190820190610d4890826114eb565b506060820151600382015560808201516004808301805460ff19169215159290921790915560a090920151600590910155335f81815260209283526040808220825481546001810183559184528584209091015590549051858152919290917fab1d9441f8d83bdd44dfc0312057cee655249887792c6c797348d13517d39410910160405180910390a3505f545b92915050565b815f81118015610ded57505f548111155b610e095760405162461bcd60e51b81526004016104f4906113f1565b5f8381526002602052604090206001015483906001600160a01b03163314610e435760405162461bcd60e51b81526004016104f490611428565b5f8311610e925760405162461bcd60e51b815260206004820152601c60248201527f5072696365206d7573742062652067726561746572207468616e20300000000060448201526064016104f4565b5f8481526002602090815260409182902060030180549086905582518181529182018690529186917f15819dd2fd9f6418b142e798d08a18d0bf06ea368f4480b7b0d3f75bd966bc48910160405180910390a25050505050565b6001600160a01b0381165f908152600460209081526040918290208054835181840281018401909452808452606093928301828280156103c157602002820191905f5260205f20908154815260200190600101908083116103ad5750505050509050919050565b805f81118015610f6457505f548111155b610f805760405162461bcd60e51b81526004016104f4906113f1565b5f8281526002602052604090206001015482906001600160a01b03163314610fba5760405162461bcd60e51b81526004016104f490611428565b5f8381526002602052604090206004015460ff161561101b5760405162461bcd60e51b815260206004820152601760248201527f50726f706572747920616c7265616479206c697374656400000000000000000060448201526064016104f4565b5f838152600260205260409081902060048101805460ff1916600117905542600582015560030154905184917fd2acfbe1632c42ab1e36cabad615126d27fa805ef1e2efc7ceec17c60ffbaafd9161107591815260200190565b60405180910390a2505050565b6005602052815f5260405f20818154811061109b575f80fd5b905f5260205f20015f91509150505481565b6004602052815f5260405f20818154811061109b575f80fd5b600260208190525f918252604090912080546001820154928201805491936001600160a01b031692916110f890611454565b80601f016020809104026020016040519081016040528092919081815260200182805461112490611454565b801561116f5780601f106111465761010080835404028352916020019161116f565b820191905f5260205f20905b81548152906001019060200180831161115257829003601f168201915b50505050600383015460048401546005909401549293909260ff909116915086565b80356001600160a01b03811681146111a7575f80fd5b919050565b5f602082840312156111bc575f80fd5b6111c582611191565b9392505050565b602080825282518282018190525f9190848201906040850190845b81811015611203578351835292840192918401916001016111e7565b50909695505050505050565b5f6020828403121561121f575f80fd5b5035919050565b8681525f602060018060a01b038816602084015260c0604084015286518060c08501525f5b818110156112675788810183015185820160e00152820161124b565b505f60e0828601015260e0601f19601f83011685010192505050846060830152611295608083018515159052565b8260a0830152979650505050505050565b634e487b7160e01b5f52604160045260245ffd5b5f80604083850312156112cb575f80fd5b823567ffffffffffffffff808211156112e2575f80fd5b818501915085601f8301126112f5575f80fd5b813581811115611307576113076112a6565b604051601f8201601f19908116603f0116810190838211818310171561132f5761132f6112a6565b81604052828152886020848701011115611347575f80fd5b826020860160208301375f602093820184015298969091013596505050505050565b5f806040838503121561137a575f80fd5b50508035926020909101359150565b5f806040838503121561139a575f80fd5b6113a383611191565b946020939093013593505050565b634e487b7160e01b5f52601160045260245ffd5b5f600182016113d6576113d66113b1565b5060010190565b634e487b7160e01b5f52603260045260245ffd5b60208082526017908201527f50726f706572747920646f6573206e6f74206578697374000000000000000000604082015260600190565b6020808252601290820152712737ba10383937b832b93a3c9037bbb732b960711b604082015260600190565b600181811c9082168061146857607f821691505b60208210810361148657634e487b7160e01b5f52602260045260245ffd5b50919050565b81810381811115610dd657610dd66113b1565b601f8211156114e657805f5260205f20601f840160051c810160208510156114c45750805b601f840160051c820191505b818110156114e3575f81556001016114d0565b50505b505050565b815167ffffffffffffffff811115611505576115056112a6565b611519816115138454611454565b8461149f565b602080601f83116001811461154c575f84156115355750858301515b5f19600386901b1c1916600185901b1785556115a3565b5f85815260208120601f198616915b8281101561157a5788860151825594840194600190910190840161155b565b508582101561159757878501515f19600388901b60f8161c191681555b505060018460011b0185555b50505050505056fea2646970667358221220c00d8de7ef8547c3ff0431b9ee1f2ad76b6b1e194023d217e73bb16f313cff1964736f6c63430008180033",
  "linkReferences": {},
  "deployedLinkReferences": {}
}